{
  "_format": "hh-sol-artifact-1",
  "contractName": "BuyMeACoffee",
  "sourceName": "contracts/BuyMeACoffee.sol",
  "abi": [
    {
      "inputs": [],
      "stateMutability": "nonpayable",
      "type": "constructor"
    },
    {
      "anonymous": false,
      "inputs": [
        {
          "indexed": true,
          "internalType": "address",
          "name": "from",
          "type": "address"
        },
        {
          "indexed": false,
          "internalType": "uint256",
          "name": "timestamp",
          "type": "uint256"
        },
        {
          "indexed": false,
          "internalType": "string",
          "name": "name",
          "type": "string"
        },
        {
          "indexed": false,
          "internalType": "string",
          "name": "message",
          "type": "string"
        }
      ],
      "name": "NewMemo",
      "type": "event"
    },
    {
      "inputs": [
        {
          "internalType": "string",
          "name": "_name",
          "type": "string"
        },
        {
          "internalType": "string",
          "name": "_message",
          "type": "string"
        }
      ],
      "name": "buyCoffee",
      "outputs": [],
      "stateMutability": "payable",
      "type": "function"
    },
    {
      "inputs": [],
      "name": "getMemos",
      "outputs": [
        {
          "components": [
            {
              "internalType": "address",
              "name": "from",
              "type": "address"
            },
            {
              "internalType": "uint256",
              "name": "timestamp",
              "type": "uint256"
            },
            {
              "internalType": "string",
              "name": "name",
              "type": "string"
            },
            {
              "internalType": "string",
              "name": "message",
              "type": "string"
            }
          ],
          "internalType": "struct BuyMeACoffee.Memo[]",
          "name": "",
          "type": "tuple[]"
        }
      ],
      "stateMutability": "view",
      "type": "function"
    },
    {
      "inputs": [
        {
          "internalType": "address payable",
          "name": "otherAddress",
          "type": "address"
        }
      ],
      "name": "withdrawByOthers",
      "outputs": [],
      "stateMutability": "nonpayable",
      "type": "function"
    },
    {
      "inputs": [],
      "name": "withdrawTips",
      "outputs": [],
      "stateMutability": "nonpayable",
      "type": "function"
    }
  ],
  "bytecode": "0x608060405234801561001057600080fd5b50336000806101000a81548173ffffffffffffffffffffffffffffffffffffffff021916908373ffffffffffffffffffffffffffffffffffffffff160217905550610c82806100606000396000f3fe60806040526004361061003f5760003560e01c8063204206e1146100445780633aaa74b214610060578063865c517214610077578063a195df69146100a2575b600080fd5b61005e60048036038101906100599190610762565b6100cb565b005b34801561006c57600080fd5b50610075610253565b005b34801561008357600080fd5b5061008c6102b3565b60405161009991906109e8565b60405180910390f35b3480156100ae57600080fd5b506100c960048036038101906100c49190610a48565b610496565b005b6000341161010e576040517f08c379a000000000000000000000000000000000000000000000000000000000815260040161010590610ad2565b60405180910390fd5b600160405180608001604052803373ffffffffffffffffffffffffffffffffffffffff16815260200142815260200184815260200183815250908060018154018082558091505060019003906000526020600020906004020160009091909190915060008201518160000160006101000a81548173ffffffffffffffffffffffffffffffffffffffff021916908373ffffffffffffffffffffffffffffffffffffffff1602179055506020820151816001015560408201518160020190805190602001906101dd929190610565565b5060608201518160030190805190602001906101fa929190610565565b5050503373ffffffffffffffffffffffffffffffffffffffff167fc56140e05f516509ae28110e0f72e17558a7561630dad2647c3ae87d986e365c42848460405161024793929190610b3a565b60405180910390a25050565b60008054906101000a900473ffffffffffffffffffffffffffffffffffffffff1673ffffffffffffffffffffffffffffffffffffffff166108fc479081150290604051600060405180830381858888f193505050506102b157600080fd5b565b60606001805480602002602001604051908101604052809291908181526020016000905b8282101561048d57838290600052602060002090600402016040518060800160405290816000820160009054906101000a900473ffffffffffffffffffffffffffffffffffffffff1673ffffffffffffffffffffffffffffffffffffffff1673ffffffffffffffffffffffffffffffffffffffff1681526020016001820154815260200160028201805461036a90610bae565b80601f016020809104026020016040519081016040528092919081815260200182805461039690610bae565b80156103e35780601f106103b8576101008083540402835291602001916103e3565b820191906000526020600020905b8154815290600101906020018083116103c657829003601f168201915b505050505081526020016003820180546103fc90610bae565b80601f016020809104026020016040519081016040528092919081815260200182805461042890610bae565b80156104755780601f1061044a57610100808354040283529160200191610475565b820191906000526020600020905b81548152906001019060200180831161045857829003601f168201915b505050505081525050815260200190600101906102d7565b50505050905090565b3373ffffffffffffffffffffffffffffffffffffffff1660008054906101000a900473ffffffffffffffffffffffffffffffffffffffff1673ffffffffffffffffffffffffffffffffffffffff1614610524576040517f08c379a000000000000000000000000000000000000000000000000000000000815260040161051b90610c2c565b60405180910390fd5b8073ffffffffffffffffffffffffffffffffffffffff166108fc479081150290604051600060405180830381858888f1935050505061056257600080fd5b50565b82805461057190610bae565b90600052602060002090601f01602090048101928261059357600085556105da565b82601f106105ac57805160ff19168380011785556105da565b828001600101855582156105da579182015b828111156105d95782518255916020019190600101906105be565b5b5090506105e791906105eb565b5090565b5b808211156106045760008160009055506001016105ec565b5090565b6000604051905090565b600080fd5b600080fd5b600080fd5b600080fd5b6000601f19601f8301169050919050565b7f4e487b7100000000000000000000000000000000000000000000000000000000600052604160045260246000fd5b61066f82610626565b810181811067ffffffffffffffff8211171561068e5761068d610637565b5b80604052505050565b60006106a1610608565b90506106ad8282610666565b919050565b600067ffffffffffffffff8211156106cd576106cc610637565b5b6106d682610626565b9050602081019050919050565b82818337600083830152505050565b6000610705610700846106b2565b610697565b90508281526020810184848401111561072157610720610621565b5b61072c8482856106e3565b509392505050565b600082601f8301126107495761074861061c565b5b81356107598482602086016106f2565b91505092915050565b6000806040838503121561077957610778610612565b5b600083013567ffffffffffffffff81111561079757610796610617565b5b6107a385828601610734565b925050602083013567ffffffffffffffff8111156107c4576107c3610617565b5b6107d085828601610734565b9150509250929050565b600081519050919050565b600082825260208201905092915050565b6000819050602082019050919050565b600073ffffffffffffffffffffffffffffffffffffffff82169050919050565b600061083182610806565b9050919050565b61084181610826565b82525050565b6000819050919050565b61085a81610847565b82525050565b600081519050919050565b600082825260208201905092915050565b60005b8381101561089a57808201518184015260208101905061087f565b838111156108a9576000848401525b50505050565b60006108ba82610860565b6108c4818561086b565b93506108d481856020860161087c565b6108dd81610626565b840191505092915050565b60006080830160008301516109006000860182610838565b5060208301516109136020860182610851565b506040830151848203604086015261092b82826108af565b9150506060830151848203606086015261094582826108af565b9150508091505092915050565b600061095e83836108e8565b905092915050565b6000602082019050919050565b600061097e826107da565b61098881856107e5565b93508360208202850161099a856107f6565b8060005b858110156109d657848403895281516109b78582610952565b94506109c283610966565b925060208a0199505060018101905061099e565b50829750879550505050505092915050565b60006020820190508181036000830152610a028184610973565b905092915050565b6000610a1582610806565b9050919050565b610a2581610a0a565b8114610a3057600080fd5b50565b600081359050610a4281610a1c565b92915050565b600060208284031215610a5e57610a5d610612565b5b6000610a6c84828501610a33565b91505092915050565b600082825260208201905092915050565b7f63616e27742062757920636f6666656520666f72206672656521000000000000600082015250565b6000610abc601a83610a75565b9150610ac782610a86565b602082019050919050565b60006020820190508181036000830152610aeb81610aaf565b9050919050565b610afb81610847565b82525050565b6000610b0c82610860565b610b168185610a75565b9350610b2681856020860161087c565b610b2f81610626565b840191505092915050565b6000606082019050610b4f6000830186610af2565b8181036020830152610b618185610b01565b90508181036040830152610b758184610b01565b9050949350505050565b7f4e487b7100000000000000000000000000000000000000000000000000000000600052602260045260246000fd5b60006002820490506001821680610bc657607f821691505b60208210811415610bda57610bd9610b7f565b5b50919050565b7f596f7520617265206e6f742061646d696e210000000000000000000000000000600082015250565b6000610c16601283610a75565b9150610c2182610be0565b602082019050919050565b60006020820190508181036000830152610c4581610c09565b905091905056fea26469706673582212203fdb9d85c26eaa51b1895f5c7b77b75024885833bb7a58c13458564e0e33c42d64736f6c63430008090033",
  "linkReferences": {},
  "deployedLinkReferences": {}
}