{
  "address": "0x9D06Ff277D81361cb7Eb4b52EA0B73e6b1255ED9",
  "abi": [
    {
      "inputs": [
        {
          "internalType": "uint256",
          "name": "updateInterval",
          "type": "uint256"
        },
        {
          "internalType": "address",
          "name": "_pricefeed",
          "type": "address"
        },
        {
          "internalType": "address",
          "name": "_vrfCoordinator",
          "type": "address"
        }
      ],
      "stateMutability": "nonpayable",
      "type": "constructor"
    },
    {
      "inputs": [
        {
          "internalType": "address",
          "name": "have",
          "type": "address"
        },
        {
          "internalType": "address",
          "name": "want",
          "type": "address"
        }
      ],
      "name": "OnlyCoordinatorCanFulfill",
      "type": "error"
    },
    {
      "anonymous": false,
      "inputs": [
        {
          "indexed": true,
          "internalType": "address",
          "name": "owner",
          "type": "address"
        },
        {
          "indexed": true,
          "internalType": "address",
          "name": "approved",
          "type": "address"
        },
        {
          "indexed": true,
          "internalType": "uint256",
          "name": "tokenId",
          "type": "uint256"
        }
      ],
      "name": "Approval",
      "type": "event"
    },
    {
      "anonymous": false,
      "inputs": [
        {
          "indexed": true,
          "internalType": "address",
          "name": "owner",
          "type": "address"
        },
        {
          "indexed": true,
          "internalType": "address",
          "name": "operator",
          "type": "address"
        },
        {
          "indexed": false,
          "internalType": "bool",
          "name": "approved",
          "type": "bool"
        }
      ],
      "name": "ApprovalForAll",
      "type": "event"
    },
    {
      "anonymous": false,
      "inputs": [
        {
          "indexed": true,
          "internalType": "address",
          "name": "previousOwner",
          "type": "address"
        },
        {
          "indexed": true,
          "internalType": "address",
          "name": "newOwner",
          "type": "address"
        }
      ],
      "name": "OwnershipTransferred",
      "type": "event"
    },
    {
      "anonymous": false,
      "inputs": [
        {
          "indexed": false,
          "internalType": "string",
          "name": "marketTrend",
          "type": "string"
        }
      ],
      "name": "TokensUpdated",
      "type": "event"
    },
    {
      "anonymous": false,
      "inputs": [
        {
          "indexed": true,
          "internalType": "address",
          "name": "from",
          "type": "address"
        },
        {
          "indexed": true,
          "internalType": "address",
          "name": "to",
          "type": "address"
        },
        {
          "indexed": true,
          "internalType": "uint256",
          "name": "tokenId",
          "type": "uint256"
        }
      ],
      "name": "Transfer",
      "type": "event"
    },
    {
      "inputs": [],
      "name": "COORDINATOR",
      "outputs": [
        {
          "internalType": "contract VRFCoordinatorV2Interface",
          "name": "",
          "type": "address"
        }
      ],
      "stateMutability": "view",
      "type": "function"
    },
    {
      "inputs": [
        {
          "internalType": "address",
          "name": "to",
          "type": "address"
        },
        {
          "internalType": "uint256",
          "name": "tokenId",
          "type": "uint256"
        }
      ],
      "name": "approve",
      "outputs": [],
      "stateMutability": "nonpayable",
      "type": "function"
    },
    {
      "inputs": [
        {
          "internalType": "address",
          "name": "owner",
          "type": "address"
        }
      ],
      "name": "balanceOf",
      "outputs": [
        {
          "internalType": "uint256",
          "name": "",
          "type": "uint256"
        }
      ],
      "stateMutability": "view",
      "type": "function"
    },
    {
      "inputs": [],
      "name": "callbackGasLimit",
      "outputs": [
        {
          "internalType": "uint32",
          "name": "",
          "type": "uint32"
        }
      ],
      "stateMutability": "view",
      "type": "function"
    },
    {
      "inputs": [
        {
          "internalType": "bytes",
          "name": "",
          "type": "bytes"
        }
      ],
      "name": "checkUpkeep",
      "outputs": [
        {
          "internalType": "bool",
          "name": "upkeepNeeded",
          "type": "bool"
        },
        {
          "internalType": "bytes",
          "name": "",
          "type": "bytes"
        }
      ],
      "stateMutability": "view",
      "type": "function"
    },
    {
      "inputs": [],
      "name": "currentMarketTrend",
      "outputs": [
        {
          "internalType": "enum RandomBullBear.MarketTrend",
          "name": "",
          "type": "uint8"
        }
      ],
      "stateMutability": "view",
      "type": "function"
    },
    {
      "inputs": [],
      "name": "currentPrice",
      "outputs": [
        {
          "internalType": "int256",
          "name": "",
          "type": "int256"
        }
      ],
      "stateMutability": "view",
      "type": "function"
    },
    {
      "inputs": [
        {
          "internalType": "uint256",
          "name": "tokenId",
          "type": "uint256"
        }
      ],
      "name": "getApproved",
      "outputs": [
        {
          "internalType": "address",
          "name": "",
          "type": "address"
        }
      ],
      "stateMutability": "view",
      "type": "function"
    },
    {
      "inputs": [],
      "name": "getLatestPrice",
      "outputs": [
        {
          "internalType": "int256",
          "name": "",
          "type": "int256"
        }
      ],
      "stateMutability": "view",
      "type": "function"
    },
    {
      "inputs": [],
      "name": "interval",
      "outputs": [
        {
          "internalType": "uint256",
          "name": "",
          "type": "uint256"
        }
      ],
      "stateMutability": "view",
      "type": "function"
    },
    {
      "inputs": [
        {
          "internalType": "address",
          "name": "owner",
          "type": "address"
        },
        {
          "internalType": "address",
          "name": "operator",
          "type": "address"
        }
      ],
      "name": "isApprovedForAll",
      "outputs": [
        {
          "internalType": "bool",
          "name": "",
          "type": "bool"
        }
      ],
      "stateMutability": "view",
      "type": "function"
    },
    {
      "inputs": [],
      "name": "lastTimeStamp",
      "outputs": [
        {
          "internalType": "uint256",
          "name": "",
          "type": "uint256"
        }
      ],
      "stateMutability": "view",
      "type": "function"
    },
    {
      "inputs": [],
      "name": "name",
      "outputs": [
        {
          "internalType": "string",
          "name": "",
          "type": "string"
        }
      ],
      "stateMutability": "view",
      "type": "function"
    },
    {
      "inputs": [],
      "name": "owner",
      "outputs": [
        {
          "internalType": "address",
          "name": "",
          "type": "address"
        }
      ],
      "stateMutability": "view",
      "type": "function"
    },
    {
      "inputs": [
        {
          "internalType": "uint256",
          "name": "tokenId",
          "type": "uint256"
        }
      ],
      "name": "ownerOf",
      "outputs": [
        {
          "internalType": "address",
          "name": "",
          "type": "address"
        }
      ],
      "stateMutability": "view",
      "type": "function"
    },
    {
      "inputs": [
        {
          "internalType": "bytes",
          "name": "",
          "type": "bytes"
        }
      ],
      "name": "performUpkeep",
      "outputs": [],
      "stateMutability": "nonpayable",
      "type": "function"
    },
    {
      "inputs": [],
      "name": "pricefeed",
      "outputs": [
        {
          "internalType": "contract AggregatorV3Interface",
          "name": "",
          "type": "address"
        }
      ],
      "stateMutability": "view",
      "type": "function"
    },
    {
      "inputs": [
        {
          "internalType": "uint256",
          "name": "requestId",
          "type": "uint256"
        },
        {
          "internalType": "uint256[]",
          "name": "randomWords",
          "type": "uint256[]"
        }
      ],
      "name": "rawFulfillRandomWords",
      "outputs": [],
      "stateMutability": "nonpayable",
      "type": "function"
    },
    {
      "inputs": [],
      "name": "renounceOwnership",
      "outputs": [],
      "stateMutability": "nonpayable",
      "type": "function"
    },
    {
      "inputs": [
        {
          "internalType": "uint256",
          "name": "",
          "type": "uint256"
        }
      ],
      "name": "s_randomWords",
      "outputs": [
        {
          "internalType": "uint256",
          "name": "",
          "type": "uint256"
        }
      ],
      "stateMutability": "view",
      "type": "function"
    },
    {
      "inputs": [],
      "name": "s_requestId",
      "outputs": [
        {
          "internalType": "uint256",
          "name": "",
          "type": "uint256"
        }
      ],
      "stateMutability": "view",
      "type": "function"
    },
    {
      "inputs": [],
      "name": "s_subscriptionId",
      "outputs": [
        {
          "internalType": "uint64",
          "name": "",
          "type": "uint64"
        }
      ],
      "stateMutability": "view",
      "type": "function"
    },
    {
      "inputs": [
        {
          "internalType": "address",
          "name": "to",
          "type": "address"
        }
      ],
      "name": "safeMint",
      "outputs": [],
      "stateMutability": "nonpayable",
      "type": "function"
    },
    {
      "inputs": [
        {
          "internalType": "address",
          "name": "from",
          "type": "address"
        },
        {
          "internalType": "address",
          "name": "to",
          "type": "address"
        },
        {
          "internalType": "uint256",
          "name": "tokenId",
          "type": "uint256"
        }
      ],
      "name": "safeTransferFrom",
      "outputs": [],
      "stateMutability": "nonpayable",
      "type": "function"
    },
    {
      "inputs": [
        {
          "internalType": "address",
          "name": "from",
          "type": "address"
        },
        {
          "internalType": "address",
          "name": "to",
          "type": "address"
        },
        {
          "internalType": "uint256",
          "name": "tokenId",
          "type": "uint256"
        },
        {
          "internalType": "bytes",
          "name": "data",
          "type": "bytes"
        }
      ],
      "name": "safeTransferFrom",
      "outputs": [],
      "stateMutability": "nonpayable",
      "type": "function"
    },
    {
      "inputs": [
        {
          "internalType": "address",
          "name": "operator",
          "type": "address"
        },
        {
          "internalType": "bool",
          "name": "approved",
          "type": "bool"
        }
      ],
      "name": "setApprovalForAll",
      "outputs": [],
      "stateMutability": "nonpayable",
      "type": "function"
    },
    {
      "inputs": [
        {
          "internalType": "uint32",
          "name": "maxGas",
          "type": "uint32"
        }
      ],
      "name": "setCallbackGasLimit",
      "outputs": [],
      "stateMutability": "nonpayable",
      "type": "function"
    },
    {
      "inputs": [
        {
          "internalType": "uint256",
          "name": "newInterval",
          "type": "uint256"
        }
      ],
      "name": "setInterval",
      "outputs": [],
      "stateMutability": "nonpayable",
      "type": "function"
    },
    {
      "inputs": [
        {
          "internalType": "address",
          "name": "newFeed",
          "type": "address"
        }
      ],
      "name": "setPriceFeed",
      "outputs": [],
      "stateMutability": "nonpayable",
      "type": "function"
    },
    {
      "inputs": [
        {
          "internalType": "uint64",
          "name": "_id",
          "type": "uint64"
        }
      ],
      "name": "setSubscriptionId",
      "outputs": [],
      "stateMutability": "nonpayable",
      "type": "function"
    },
    {
      "inputs": [
        {
          "internalType": "address",
          "name": "_address",
          "type": "address"
        }
      ],
      "name": "setVrfCoodinator",
      "outputs": [],
      "stateMutability": "nonpayable",
      "type": "function"
    },
    {
      "inputs": [
        {
          "internalType": "bytes4",
          "name": "interfaceId",
          "type": "bytes4"
        }
      ],
      "name": "supportsInterface",
      "outputs": [
        {
          "internalType": "bool",
          "name": "",
          "type": "bool"
        }
      ],
      "stateMutability": "view",
      "type": "function"
    },
    {
      "inputs": [],
      "name": "symbol",
      "outputs": [
        {
          "internalType": "string",
          "name": "",
          "type": "string"
        }
      ],
      "stateMutability": "view",
      "type": "function"
    },
    {
      "inputs": [
        {
          "internalType": "uint256",
          "name": "index",
          "type": "uint256"
        }
      ],
      "name": "tokenByIndex",
      "outputs": [
        {
          "internalType": "uint256",
          "name": "",
          "type": "uint256"
        }
      ],
      "stateMutability": "view",
      "type": "function"
    },
    {
      "inputs": [
        {
          "internalType": "address",
          "name": "owner",
          "type": "address"
        },
        {
          "internalType": "uint256",
          "name": "index",
          "type": "uint256"
        }
      ],
      "name": "tokenOfOwnerByIndex",
      "outputs": [
        {
          "internalType": "uint256",
          "name": "",
          "type": "uint256"
        }
      ],
      "stateMutability": "view",
      "type": "function"
    },
    {
      "inputs": [
        {
          "internalType": "uint256",
          "name": "tokenId",
          "type": "uint256"
        }
      ],
      "name": "tokenURI",
      "outputs": [
        {
          "internalType": "string",
          "name": "",
          "type": "string"
        }
      ],
      "stateMutability": "view",
      "type": "function"
    },
    {
      "inputs": [],
      "name": "totalSupply",
      "outputs": [
        {
          "internalType": "uint256",
          "name": "",
          "type": "uint256"
        }
      ],
      "stateMutability": "view",
      "type": "function"
    },
    {
      "inputs": [
        {
          "internalType": "address",
          "name": "from",
          "type": "address"
        },
        {
          "internalType": "address",
          "name": "to",
          "type": "address"
        },
        {
          "internalType": "uint256",
          "name": "tokenId",
          "type": "uint256"
        }
      ],
      "name": "transferFrom",
      "outputs": [],
      "stateMutability": "nonpayable",
      "type": "function"
    },
    {
      "inputs": [
        {
          "internalType": "address",
          "name": "newOwner",
          "type": "address"
        }
      ],
      "name": "transferOwnership",
      "outputs": [],
      "stateMutability": "nonpayable",
      "type": "function"
    }
  ],
  "transactionHash": "0x52848031c6ea4d7b1b45f42ee7c44bc27bdbc7a881b8170a9ba39df286db6d58",
  "args": [
    60,
    "0x8A753747A1Fa494EC906cE90E9f37563A8AF630e",
    "0x6168499c0cFfCaCD319c818142124B7A15E857ab"
  ],
  "numDeployments": 1,
  "solcInputHash": "3f4b0bde1e1643e402f5f55ccb1e4b66",
  "bytecode": "0x60a06040526207a120601160006101000a81548163ffffffff021916908363ffffffff1602179055507fd89b2bf150e3b9e13446986e571fb9cab24b13cea0a43ea20a6049a85cc807cc60001b6012556000601360006101000a81548160ff021916908360018111156200007857620000776200064e565b5b021790555060405180606001604052806040518060800160405280605c8152602001620054e5605c913981526020016040518060800160405280605c8152602001620055fb605c913981526020016040518060800160405280605d815260200162005488605d91398152506017906003620000f5929190620004c9565b5060405180606001604052806040518060800160405280605d81526020016200559e605d913981526020016040518060800160405280605d815260200162005657605d913981526020016040518060800160405280605d815260200162005541605d913981525060189060036200016e929190620004c9565b503480156200017c57600080fd5b50604051620056b4380380620056b48339818101604052810190620001a2919062000722565b806040518060400160405280600981526020017f42756c6c264265617200000000000000000000000000000000000000000000008152506040518060400160405280600481526020017f4242544b0000000000000000000000000000000000000000000000000000000081525081600090805190602001906200022792919062000530565b5080600190805190602001906200024092919062000530565b50505062000263620002576200034760201b60201c565b6200034f60201b60201c565b8073ffffffffffffffffffffffffffffffffffffffff1660808173ffffffffffffffffffffffffffffffffffffffff168152505050826014819055504260158190555081600d60006101000a81548173ffffffffffffffffffffffffffffffffffffffff021916908373ffffffffffffffffffffffffffffffffffffffff160217905550620002f76200041560201b60201c565b60168190555080600e60006101000a81548173ffffffffffffffffffffffffffffffffffffffff021916908373ffffffffffffffffffffffffffffffffffffffff160217905550505050620008ed565b600033905090565b6000600b60009054906101000a900473ffffffffffffffffffffffffffffffffffffffff16905081600b60006101000a81548173ffffffffffffffffffffffffffffffffffffffff021916908373ffffffffffffffffffffffffffffffffffffffff1602179055508173ffffffffffffffffffffffffffffffffffffffff168173ffffffffffffffffffffffffffffffffffffffff167f8be0079c531659141344cd1fd0a4f28419497f9722a3daafe3b4186f6b6457e060405160405180910390a35050565b600080600d60009054906101000a900473ffffffffffffffffffffffffffffffffffffffff1673ffffffffffffffffffffffffffffffffffffffff1663feaf968c6040518163ffffffff1660e01b815260040160a06040518083038186803b1580156200048157600080fd5b505afa15801562000496573d6000803e3d6000fd5b505050506040513d601f19601f82011682018060405250810190620004bc919062000800565b5050509150508091505090565b8280548282559060005260206000209081019282156200051d579160200282015b828111156200051c5782518290805190602001906200050b92919062000530565b5091602001919060010190620004ea565b5b5090506200052c9190620005c1565b5090565b8280546200053e90620008b7565b90600052602060002090601f016020900481019282620005625760008555620005ae565b82601f106200057d57805160ff1916838001178555620005ae565b82800160010185558215620005ae579182015b82811115620005ad57825182559160200191906001019062000590565b5b509050620005bd9190620005e9565b5090565b5b80821115620005e55760008181620005db919062000608565b50600101620005c2565b5090565b5b8082111562000604576000816000905550600101620005ea565b5090565b5080546200061690620008b7565b6000825580601f106200062a57506200064b565b601f0160209004906000526020600020908101906200064a9190620005e9565b5b50565b7f4e487b7100000000000000000000000000000000000000000000000000000000600052602160045260246000fd5b600080fd5b6000819050919050565b620006978162000682565b8114620006a357600080fd5b50565b600081519050620006b7816200068c565b92915050565b600073ffffffffffffffffffffffffffffffffffffffff82169050919050565b6000620006ea82620006bd565b9050919050565b620006fc81620006dd565b81146200070857600080fd5b50565b6000815190506200071c81620006f1565b92915050565b6000806000606084860312156200073e576200073d6200067d565b5b60006200074e86828701620006a6565b935050602062000761868287016200070b565b925050604062000774868287016200070b565b9150509250925092565b600069ffffffffffffffffffff82169050919050565b6200079f816200077e565b8114620007ab57600080fd5b50565b600081519050620007bf8162000794565b92915050565b6000819050919050565b620007da81620007c5565b8114620007e657600080fd5b50565b600081519050620007fa81620007cf565b92915050565b600080600080600060a086880312156200081f576200081e6200067d565b5b60006200082f88828901620007ae565b95505060206200084288828901620007e9565b94505060406200085588828901620006a6565b93505060606200086888828901620006a6565b92505060806200087b88828901620007ae565b9150509295509295909350565b7f4e487b7100000000000000000000000000000000000000000000000000000000600052602260045260246000fd5b60006002820490506001821680620008d057607f821691505b60208210811415620008e757620008e662000888565b5b50919050565b608051614b78620009106000396000818161096a01526109be0152614b786000f3fe608060405234801561001057600080fd5b506004361061023d5760003560e01c806370a082311161013b578063a4eb718c116100b8578063e985e9c51161007c578063e985e9c5146106a3578063ea7b4f77146106d3578063f0e8b3ae146106ef578063f2fde38b1461070d578063f6eaffc8146107295761023d565b8063a4eb718c14610601578063b88d4fde1461061d578063c87b56dd14610639578063cb02880214610669578063e89e106a146106855761023d565b80638e15f473116100ff5780638e15f4731461056d578063947a36fb1461058b57806395d89b41146105a95780639d1b464a146105c7578063a22cb465146105e55761023d565b806370a08231146104db578063715018a61461050b578063724e78da146105155780638ac00021146105315780638da5cb5b1461054f5761023d565b80632f745c59116101c95780634585e33b1161018d5780634585e33b146104105780634f6ccce71461042c578063590f21131461045c5780636352211e1461047a5780636e04ff0d146104aa5761023d565b80632f745c591461036c5780633b2bcbf11461039c5780633f3b3b27146103ba57806340d097c3146103d857806342842e0e146103f45761023d565b806318160ddd1161021057806318160ddd146102dc5780631fe543e3146102fa57806322a900821461031657806323b872dd1461033257806324f746971461034e5761023d565b806301ffc9a71461024257806306fdde0314610272578063081812fc14610290578063095ea7b3146102c0575b600080fd5b61025c60048036038101906102579190613218565b610759565b6040516102699190613260565b60405180910390f35b61027a61076b565b6040516102879190613314565b60405180910390f35b6102aa60048036038101906102a5919061336c565b6107fd565b6040516102b791906133da565b60405180910390f35b6102da60048036038101906102d59190613421565b610843565b005b6102e461095b565b6040516102f19190613470565b60405180910390f35b610314600480360381019061030f91906135d3565b610968565b005b610330600480360381019061032b919061336c565b610a28565b005b61034c6004803603810190610347919061362f565b610a3a565b005b610356610a9a565b60405161036391906136a1565b60405180910390f35b61038660048036038101906103819190613421565b610ab0565b6040516103939190613470565b60405180910390f35b6103a4610b55565b6040516103b1919061371b565b60405180910390f35b6103c2610b7b565b6040516103cf9190613470565b60405180910390f35b6103f260048036038101906103ed9190613736565b610b81565b005b61040e6004803603810190610409919061362f565b610cd4565b005b61042a600480360381019061042591906137be565b610cf4565b005b6104466004803603810190610441919061336c565b610eab565b6040516104539190613470565b60405180910390f35b610464610f1c565b604051610471919061382c565b60405180910390f35b610494600480360381019061048f919061336c565b610f42565b6040516104a191906133da565b60405180910390f35b6104c460048036038101906104bf91906137be565b610ff4565b6040516104d292919061389c565b60405180910390f35b6104f560048036038101906104f09190613736565b611013565b6040516105029190613470565b60405180910390f35b6105136110cb565b005b61052f600480360381019061052a9190613736565b6110df565b005b61053961112b565b60405161054691906138ef565b60405180910390f35b610557611145565b60405161056491906133da565b60405180910390f35b61057561116f565b6040516105829190613923565b60405180910390f35b61059361121f565b6040516105a09190613470565b60405180910390f35b6105b1611225565b6040516105be9190613314565b60405180910390f35b6105cf6112b7565b6040516105dc9190613923565b60405180910390f35b6105ff60048036038101906105fa919061396a565b6112bd565b005b61061b600480360381019061061691906139d6565b6112d3565b005b61063760048036038101906106329190613ab8565b6112ff565b005b610653600480360381019061064e919061336c565b611361565b6040516106609190613314565b60405180910390f35b610683600480360381019061067e9190613736565b611373565b005b61068d6113bf565b60405161069a9190613470565b60405180910390f35b6106bd60048036038101906106b89190613b3b565b6113c5565b6040516106ca9190613260565b60405180910390f35b6106ed60048036038101906106e89190613ba7565b611459565b005b6106f761148d565b6040516107049190613c4b565b60405180910390f35b61072760048036038101906107229190613736565b6114a0565b005b610743600480360381019061073e919061336c565b611524565b6040516107509190613470565b60405180910390f35b600061076482611548565b9050919050565b60606000805461077a90613c95565b80601f01602080910402602001604051908101604052809291908181526020018280546107a690613c95565b80156107f35780601f106107c8576101008083540402835291602001916107f3565b820191906000526020600020905b8154815290600101906020018083116107d657829003601f168201915b5050505050905090565b6000610808826115c2565b6004600083815260200190815260200160002060009054906101000a900473ffffffffffffffffffffffffffffffffffffffff169050919050565b600061084e82610f42565b90508073ffffffffffffffffffffffffffffffffffffffff168373ffffffffffffffffffffffffffffffffffffffff1614156108bf576040517f08c379a00000000000000000000000000000000000000000000000000000000081526004016108b690613d39565b60405180910390fd5b8073ffffffffffffffffffffffffffffffffffffffff166108de61160d565b73ffffffffffffffffffffffffffffffffffffffff16148061090d575061090c8161090761160d565b6113c5565b5b61094c576040517f08c379a000000000000000000000000000000000000000000000000000000000815260040161094390613dcb565b60405180910390fd5b6109568383611615565b505050565b6000600880549050905090565b7f000000000000000000000000000000000000000000000000000000000000000073ffffffffffffffffffffffffffffffffffffffff163373ffffffffffffffffffffffffffffffffffffffff1614610a1a57337f00000000000000000000000000000000000000000000000000000000000000006040517f1cf993f4000000000000000000000000000000000000000000000000000000008152600401610a11929190613deb565b60405180910390fd5b610a2482826116ce565b5050565b610a306119a1565b8060148190555050565b610a4b610a4561160d565b82611a1f565b610a8a576040517f08c379a0000000000000000000000000000000000000000000000000000000008152600401610a8190613e86565b60405180910390fd5b610a95838383611ab4565b505050565b601160009054906101000a900463ffffffff1681565b6000610abb83611013565b8210610afc576040517f08c379a0000000000000000000000000000000000000000000000000000000008152600401610af390613f18565b60405180910390fd5b600660008473ffffffffffffffffffffffffffffffffffffffff1673ffffffffffffffffffffffffffffffffffffffff168152602001908152602001600020600083815260200190815260200160002054905092915050565b600e60009054906101000a900473ffffffffffffffffffffffffffffffffffffffff1681565b60155481565b6000610b8d600c611d1b565b9050610b99600c611d29565b610ba38282611d3f565b60006017600081548110610bba57610bb9613f38565b5b906000526020600020018054610bcf90613c95565b80601f0160208091040260200160405190810160405280929190818152602001828054610bfb90613c95565b8015610c485780601f10610c1d57610100808354040283529160200191610c48565b820191906000526020600020905b815481529060010190602001808311610c2b57829003601f168201915b50505050509050610c598282611d5d565b610ccf6040518060400160405280601581526020017f444f4e45212121206d696e74656420746f6b656e200000000000000000000000815250836040518060400160405280601981526020017f20616e642061737369676e656420746f6b656e2075726c3a200000000000000081525084611dd1565b505050565b610cef838383604051806020016040528060008152506112ff565b505050565b60145460155442610d059190613f96565b1115610e6357426015819055506000610d1c61116f565b9050601654811415610d6c57610d666040518060400160405280601781526020017f4e4f204348414e4745202d3e2072657475726e696e6721000000000000000000815250611e73565b50610ea7565b601654811215610de457610db46040518060400160405280600d81526020017f49545320424541522054494d4500000000000000000000000000000000000000815250611e73565b6001601360006101000a81548160ff02191690836001811115610dda57610dd9613bd4565b5b0217905550610e4e565b610e226040518060400160405280600d81526020017f4954532042554c4c2054494d4500000000000000000000000000000000000000815250611e73565b6000601360006101000a81548160ff02191690836001811115610e4857610e47613bd4565b5b02179055505b610e56611f0c565b8060168190555050610ea6565b610ea16040518060400160405280601181526020017f20494e54455256414c204e4f5420555021000000000000000000000000000000815250611e73565b610ea7565b5b5050565b6000610eb561095b565b8210610ef6576040517f08c379a0000000000000000000000000000000000000000000000000000000008152600401610eed9061403c565b60405180910390fd5b60088281548110610f0a57610f09613f38565b5b90600052602060002001549050919050565b600d60009054906101000a900473ffffffffffffffffffffffffffffffffffffffff1681565b6000806002600084815260200190815260200160002060009054906101000a900473ffffffffffffffffffffffffffffffffffffffff169050600073ffffffffffffffffffffffffffffffffffffffff168173ffffffffffffffffffffffffffffffffffffffff161415610feb576040517f08c379a0000000000000000000000000000000000000000000000000000000008152600401610fe2906140a8565b60405180910390fd5b80915050919050565b60006060601454601554426110099190613f96565b1191509250929050565b60008073ffffffffffffffffffffffffffffffffffffffff168273ffffffffffffffffffffffffffffffffffffffff161415611084576040517f08c379a000000000000000000000000000000000000000000000000000000000815260040161107b9061413a565b60405180910390fd5b600360008373ffffffffffffffffffffffffffffffffffffffff1673ffffffffffffffffffffffffffffffffffffffff168152602001908152602001600020549050919050565b6110d36119a1565b6110dd600061209a565b565b6110e76119a1565b80600d60006101000a81548173ffffffffffffffffffffffffffffffffffffffff021916908373ffffffffffffffffffffffffffffffffffffffff16021790555050565b601160049054906101000a900467ffffffffffffffff1681565b6000600b60009054906101000a900473ffffffffffffffffffffffffffffffffffffffff16905090565b600080600d60009054906101000a900473ffffffffffffffffffffffffffffffffffffffff1673ffffffffffffffffffffffffffffffffffffffff1663feaf968c6040518163ffffffff1660e01b815260040160a06040518083038186803b1580156111da57600080fd5b505afa1580156111ee573d6000803e3d6000fd5b505050506040513d601f19601f8201168201806040525081019061121291906141dd565b5050509150508091505090565b60145481565b60606001805461123490613c95565b80601f016020809104026020016040519081016040528092919081815260200182805461126090613c95565b80156112ad5780601f10611282576101008083540402835291602001916112ad565b820191906000526020600020905b81548152906001019060200180831161129057829003601f168201915b5050505050905090565b60165481565b6112cf6112c861160d565b8383612160565b5050565b6112db6119a1565b80601160006101000a81548163ffffffff021916908363ffffffff16021790555050565b61131061130a61160d565b83611a1f565b61134f576040517f08c379a000000000000000000000000000000000000000000000000000000000815260040161134690613e86565b60405180910390fd5b61135b848484846122cd565b50505050565b606061136c82612329565b9050919050565b61137b6119a1565b80600e60006101000a81548173ffffffffffffffffffffffffffffffffffffffff021916908373ffffffffffffffffffffffffffffffffffffffff16021790555050565b60105481565b6000600560008473ffffffffffffffffffffffffffffffffffffffff1673ffffffffffffffffffffffffffffffffffffffff16815260200190815260200160002060008373ffffffffffffffffffffffffffffffffffffffff1673ffffffffffffffffffffffffffffffffffffffff16815260200190815260200160002060009054906101000a900460ff16905092915050565b6114616119a1565b80601160046101000a81548167ffffffffffffffff021916908367ffffffffffffffff16021790555050565b601360009054906101000a900460ff1681565b6114a86119a1565b600073ffffffffffffffffffffffffffffffffffffffff168173ffffffffffffffffffffffffffffffffffffffff161415611518576040517f08c379a000000000000000000000000000000000000000000000000000000000815260040161150f906142ca565b60405180910390fd5b6115218161209a565b50565b600f818154811061153457600080fd5b906000526020600020016000915090505481565b60007f780e9d63000000000000000000000000000000000000000000000000000000007bffffffffffffffffffffffffffffffffffffffffffffffffffffffff1916827bffffffffffffffffffffffffffffffffffffffffffffffffffffffff191614806115bb57506115ba8261243c565b5b9050919050565b6115cb8161251e565b61160a576040517f08c379a0000000000000000000000000000000000000000000000000000000008152600401611601906140a8565b60405180910390fd5b50565b600033905090565b816004600083815260200190815260200160002060006101000a81548173ffffffffffffffffffffffffffffffffffffffff021916908373ffffffffffffffffffffffffffffffffffffffff160217905550808273ffffffffffffffffffffffffffffffffffffffff1661168883610f42565b73ffffffffffffffffffffffffffffffffffffffff167f8c5be1e5ebec7d5bd14f71427d1e84f3dd0314c0f7b2291e5b200ac8c7c3b92560405160405180910390a45050565b80600f90805190602001906116e49291906130bc565b506117236040518060400160405280601a81526020017f2e2e2e46756c66696c6c696e672072616e646f6d20576f726473000000000000815250611e73565b600080600181111561173857611737613bd4565b5b601360009054906101000a900460ff16600181111561175a57611759613bd4565b5b14611766576018611769565b60175b805480602002602001604051908101604052809291908181526020016000905b828210156118355783829060005260206000200180546117a890613c95565b80601f01602080910402602001604051908101604052809291908181526020018280546117d490613c95565b80156118215780601f106117f657610100808354040283529160200191611821565b820191906000526020600020905b81548152906001019060200180831161180457829003601f168201915b505050505081526020019060010190611789565b505050509050600081518360008151811061185357611852613f38565b5b60200260200101516118659190614319565b905060005b611874600c611d1b565b8110156118b25761189f8184848151811061189257611891613f38565b5b6020026020010151611d5d565b80806118aa9061434a565b91505061186a565b5060008060018111156118c8576118c7613bd4565b5b601360009054906101000a900460ff1660018111156118ea576118e9613bd4565b5b1461192a576040518060400160405280600781526020017f6265617269736800000000000000000000000000000000000000000000000000815250611961565b6040518060400160405280600781526020017f62756c6c697368000000000000000000000000000000000000000000000000008152505b90507f1cd67277dcd039d660f99499bdb46e90175d6160e3f9ab788a032b7a1ad2356a816040516119929190613314565b60405180910390a15050505050565b6119a961160d565b73ffffffffffffffffffffffffffffffffffffffff166119c7611145565b73ffffffffffffffffffffffffffffffffffffffff1614611a1d576040517f08c379a0000000000000000000000000000000000000000000000000000000008152600401611a14906143df565b60405180910390fd5b565b600080611a2b83610f42565b90508073ffffffffffffffffffffffffffffffffffffffff168473ffffffffffffffffffffffffffffffffffffffff161480611a6d5750611a6c81856113c5565b5b80611aab57508373ffffffffffffffffffffffffffffffffffffffff16611a93846107fd565b73ffffffffffffffffffffffffffffffffffffffff16145b91505092915050565b8273ffffffffffffffffffffffffffffffffffffffff16611ad482610f42565b73ffffffffffffffffffffffffffffffffffffffff1614611b2a576040517f08c379a0000000000000000000000000000000000000000000000000000000008152600401611b2190614471565b60405180910390fd5b600073ffffffffffffffffffffffffffffffffffffffff168273ffffffffffffffffffffffffffffffffffffffff161415611b9a576040517f08c379a0000000000000000000000000000000000000000000000000000000008152600401611b9190614503565b60405180910390fd5b611ba583838361258a565b611bb0600082611615565b6001600360008573ffffffffffffffffffffffffffffffffffffffff1673ffffffffffffffffffffffffffffffffffffffff1681526020019081526020016000206000828254611c009190613f96565b925050819055506001600360008473ffffffffffffffffffffffffffffffffffffffff1673ffffffffffffffffffffffffffffffffffffffff1681526020019081526020016000206000828254611c579190614523565b92505081905550816002600083815260200190815260200160002060006101000a81548173ffffffffffffffffffffffffffffffffffffffff021916908373ffffffffffffffffffffffffffffffffffffffff160217905550808273ffffffffffffffffffffffffffffffffffffffff168473ffffffffffffffffffffffffffffffffffffffff167fddf252ad1be2c89b69c2b068fc378daa952ba7f163c4a11628f55a4df523b3ef60405160405180910390a4611d1683838361259a565b505050565b600081600001549050919050565b6001816000016000828254019250508190555050565b611d5982826040518060200160405280600081525061259f565b5050565b611d668261251e565b611da5576040517f08c379a0000000000000000000000000000000000000000000000000000000008152600401611d9c906145eb565b60405180910390fd5b80600a60008481526020019081526020016000209080519060200190611dcc929190613109565b505050565b611e6d84848484604051602401611deb949392919061460b565b6040516020818303038152906040527f5ab84e1f000000000000000000000000000000000000000000000000000000007bffffffffffffffffffffffffffffffffffffffffffffffffffffffff19166020820180517bffffffffffffffffffffffffffffffffffffffffffffffffffffffff83818316178352505050506125fa565b50505050565b611f0981604051602401611e879190613314565b6040516020818303038152906040527f41304fac000000000000000000000000000000000000000000000000000000007bffffffffffffffffffffffffffffffffffffffffffffffffffffffff19166020820180517bffffffffffffffffffffffffffffffffffffffffffffffffffffffff83818316178352505050506125fa565b50565b6000601160049054906101000a900467ffffffffffffffff1667ffffffffffffffff161415611f70576040517f08c379a0000000000000000000000000000000000000000000000000000000008152600401611f67906146b1565b60405180910390fd5b600e60009054906101000a900473ffffffffffffffffffffffffffffffffffffffff1673ffffffffffffffffffffffffffffffffffffffff16635d3b1d30601254601160049054906101000a900467ffffffffffffffff166003601160009054906101000a900463ffffffff1660016040518663ffffffff1660e01b8152600401611fff95949392919061476e565b602060405180830381600087803b15801561201957600080fd5b505af115801561202d573d6000803e3d6000fd5b505050506040513d601f19601f8201168201806040525081019061205191906147c1565b6010819055506120986040518060400160405280600c81526020017f526571756573742049443a200000000000000000000000000000000000000000815250601054612623565b565b6000600b60009054906101000a900473ffffffffffffffffffffffffffffffffffffffff16905081600b60006101000a81548173ffffffffffffffffffffffffffffffffffffffff021916908373ffffffffffffffffffffffffffffffffffffffff1602179055508173ffffffffffffffffffffffffffffffffffffffff168173ffffffffffffffffffffffffffffffffffffffff167f8be0079c531659141344cd1fd0a4f28419497f9722a3daafe3b4186f6b6457e060405160405180910390a35050565b8173ffffffffffffffffffffffffffffffffffffffff168373ffffffffffffffffffffffffffffffffffffffff1614156121cf576040517f08c379a00000000000000000000000000000000000000000000000000000000081526004016121c69061483a565b60405180910390fd5b80600560008573ffffffffffffffffffffffffffffffffffffffff1673ffffffffffffffffffffffffffffffffffffffff16815260200190815260200160002060008473ffffffffffffffffffffffffffffffffffffffff1673ffffffffffffffffffffffffffffffffffffffff16815260200190815260200160002060006101000a81548160ff0219169083151502179055508173ffffffffffffffffffffffffffffffffffffffff168373ffffffffffffffffffffffffffffffffffffffff167f17307eab39ab6107e8899845ad3d59bd9653f200f220920489ca2b5937696c31836040516122c09190613260565b60405180910390a3505050565b6122d8848484611ab4565b6122e4848484846126bf565b612323576040517f08c379a000000000000000000000000000000000000000000000000000000000815260040161231a906148cc565b60405180910390fd5b50505050565b6060612334826115c2565b6000600a6000848152602001908152602001600020805461235490613c95565b80601f016020809104026020016040519081016040528092919081815260200182805461238090613c95565b80156123cd5780601f106123a2576101008083540402835291602001916123cd565b820191906000526020600020905b8154815290600101906020018083116123b057829003601f168201915b5050505050905060006123de612856565b90506000815114156123f4578192505050612437565b600082511115612429578082604051602001612411929190614928565b60405160208183030381529060405292505050612437565b6124328461286d565b925050505b919050565b60007f80ac58cd000000000000000000000000000000000000000000000000000000007bffffffffffffffffffffffffffffffffffffffffffffffffffffffff1916827bffffffffffffffffffffffffffffffffffffffffffffffffffffffff1916148061250757507f5b5e139f000000000000000000000000000000000000000000000000000000007bffffffffffffffffffffffffffffffffffffffffffffffffffffffff1916827bffffffffffffffffffffffffffffffffffffffffffffffffffffffff1916145b806125175750612516826128d5565b5b9050919050565b60008073ffffffffffffffffffffffffffffffffffffffff166002600084815260200190815260200160002060009054906101000a900473ffffffffffffffffffffffffffffffffffffffff1673ffffffffffffffffffffffffffffffffffffffff1614159050919050565b61259583838361293f565b505050565b505050565b6125a98383612a53565b6125b660008484846126bf565b6125f5576040517f08c379a00000000000000000000000000000000000000000000000000000000081526004016125ec906148cc565b60405180910390fd5b505050565b60008151905060006a636f6e736f6c652e6c6f679050602083016000808483855afa5050505050565b6126bb828260405160240161263992919061494c565b6040516020818303038152906040527fb60e72cc000000000000000000000000000000000000000000000000000000007bffffffffffffffffffffffffffffffffffffffffffffffffffffffff19166020820180517bffffffffffffffffffffffffffffffffffffffffffffffffffffffff83818316178352505050506125fa565b5050565b60006126e08473ffffffffffffffffffffffffffffffffffffffff16612c2d565b15612849578373ffffffffffffffffffffffffffffffffffffffff1663150b7a0261270961160d565b8786866040518563ffffffff1660e01b815260040161272b949392919061497c565b602060405180830381600087803b15801561274557600080fd5b505af192505050801561277657506040513d601f19601f8201168201806040525081019061277391906149dd565b60015b6127f9573d80600081146127a6576040519150601f19603f3d011682016040523d82523d6000602084013e6127ab565b606091505b506000815114156127f1576040517f08c379a00000000000000000000000000000000000000000000000000000000081526004016127e8906148cc565b60405180910390fd5b805181602001fd5b63150b7a0260e01b7bffffffffffffffffffffffffffffffffffffffffffffffffffffffff1916817bffffffffffffffffffffffffffffffffffffffffffffffffffffffff19161491505061284e565b600190505b949350505050565b606060405180602001604052806000815250905090565b6060612878826115c2565b6000612882612856565b905060008151116128a257604051806020016040528060008152506128cd565b806128ac84612c50565b6040516020016128bd929190614928565b6040516020818303038152906040525b915050919050565b60007f01ffc9a7000000000000000000000000000000000000000000000000000000007bffffffffffffffffffffffffffffffffffffffffffffffffffffffff1916827bffffffffffffffffffffffffffffffffffffffffffffffffffffffff1916149050919050565b61294a838383612db1565b600073ffffffffffffffffffffffffffffffffffffffff168373ffffffffffffffffffffffffffffffffffffffff16141561298d5761298881612db6565b6129cc565b8173ffffffffffffffffffffffffffffffffffffffff168373ffffffffffffffffffffffffffffffffffffffff16146129cb576129ca8382612dff565b5b5b600073ffffffffffffffffffffffffffffffffffffffff168273ffffffffffffffffffffffffffffffffffffffff161415612a0f57612a0a81612f6c565b612a4e565b8273ffffffffffffffffffffffffffffffffffffffff168273ffffffffffffffffffffffffffffffffffffffff1614612a4d57612a4c828261303d565b5b5b505050565b600073ffffffffffffffffffffffffffffffffffffffff168273ffffffffffffffffffffffffffffffffffffffff161415612ac3576040517f08c379a0000000000000000000000000000000000000000000000000000000008152600401612aba90614a56565b60405180910390fd5b612acc8161251e565b15612b0c576040517f08c379a0000000000000000000000000000000000000000000000000000000008152600401612b0390614ac2565b60405180910390fd5b612b186000838361258a565b6001600360008473ffffffffffffffffffffffffffffffffffffffff1673ffffffffffffffffffffffffffffffffffffffff1681526020019081526020016000206000828254612b689190614523565b92505081905550816002600083815260200190815260200160002060006101000a81548173ffffffffffffffffffffffffffffffffffffffff021916908373ffffffffffffffffffffffffffffffffffffffff160217905550808273ffffffffffffffffffffffffffffffffffffffff16600073ffffffffffffffffffffffffffffffffffffffff167fddf252ad1be2c89b69c2b068fc378daa952ba7f163c4a11628f55a4df523b3ef60405160405180910390a4612c296000838361259a565b5050565b6000808273ffffffffffffffffffffffffffffffffffffffff163b119050919050565b60606000821415612c98576040518060400160405280600181526020017f30000000000000000000000000000000000000000000000000000000000000008152509050612dac565b600082905060005b60008214612cca578080612cb39061434a565b915050600a82612cc39190614ae2565b9150612ca0565b60008167ffffffffffffffff811115612ce657612ce5613490565b5b6040519080825280601f01601f191660200182016040528015612d185781602001600182028036833780820191505090505b5090505b60008514612da557600182612d319190613f96565b9150600a85612d409190614319565b6030612d4c9190614523565b60f81b818381518110612d6257612d61613f38565b5b60200101907effffffffffffffffffffffffffffffffffffffffffffffffffffffffffffff1916908160001a905350600a85612d9e9190614ae2565b9450612d1c565b8093505050505b919050565b505050565b6008805490506009600083815260200190815260200160002081905550600881908060018154018082558091505060019003906000526020600020016000909190919091505550565b60006001612e0c84611013565b612e169190613f96565b9050600060076000848152602001908152602001600020549050818114612efb576000600660008673ffffffffffffffffffffffffffffffffffffffff1673ffffffffffffffffffffffffffffffffffffffff168152602001908152602001600020600084815260200190815260200160002054905080600660008773ffffffffffffffffffffffffffffffffffffffff1673ffffffffffffffffffffffffffffffffffffffff168152602001908152602001600020600084815260200190815260200160002081905550816007600083815260200190815260200160002081905550505b6007600084815260200190815260200160002060009055600660008573ffffffffffffffffffffffffffffffffffffffff1673ffffffffffffffffffffffffffffffffffffffff16815260200190815260200160002060008381526020019081526020016000206000905550505050565b60006001600880549050612f809190613f96565b9050600060096000848152602001908152602001600020549050600060088381548110612fb057612faf613f38565b5b906000526020600020015490508060088381548110612fd257612fd1613f38565b5b90600052602060002001819055508160096000838152602001908152602001600020819055506009600085815260200190815260200160002060009055600880548061302157613020614b13565b5b6001900381819060005260206000200160009055905550505050565b600061304883611013565b905081600660008573ffffffffffffffffffffffffffffffffffffffff1673ffffffffffffffffffffffffffffffffffffffff168152602001908152602001600020600083815260200190815260200160002081905550806007600084815260200190815260200160002081905550505050565b8280548282559060005260206000209081019282156130f8579160200282015b828111156130f75782518255916020019190600101906130dc565b5b509050613105919061318f565b5090565b82805461311590613c95565b90600052602060002090601f016020900481019282613137576000855561317e565b82601f1061315057805160ff191683800117855561317e565b8280016001018555821561317e579182015b8281111561317d578251825591602001919060010190613162565b5b50905061318b919061318f565b5090565b5b808211156131a8576000816000905550600101613190565b5090565b6000604051905090565b600080fd5b600080fd5b60007fffffffff0000000000000000000000000000000000000000000000000000000082169050919050565b6131f5816131c0565b811461320057600080fd5b50565b600081359050613212816131ec565b92915050565b60006020828403121561322e5761322d6131b6565b5b600061323c84828501613203565b91505092915050565b60008115159050919050565b61325a81613245565b82525050565b60006020820190506132756000830184613251565b92915050565b600081519050919050565b600082825260208201905092915050565b60005b838110156132b557808201518184015260208101905061329a565b838111156132c4576000848401525b50505050565b6000601f19601f8301169050919050565b60006132e68261327b565b6132f08185613286565b9350613300818560208601613297565b613309816132ca565b840191505092915050565b6000602082019050818103600083015261332e81846132db565b905092915050565b6000819050919050565b61334981613336565b811461335457600080fd5b50565b60008135905061336681613340565b92915050565b600060208284031215613382576133816131b6565b5b600061339084828501613357565b91505092915050565b600073ffffffffffffffffffffffffffffffffffffffff82169050919050565b60006133c482613399565b9050919050565b6133d4816133b9565b82525050565b60006020820190506133ef60008301846133cb565b92915050565b6133fe816133b9565b811461340957600080fd5b50565b60008135905061341b816133f5565b92915050565b60008060408385031215613438576134376131b6565b5b60006134468582860161340c565b925050602061345785828601613357565b9150509250929050565b61346a81613336565b82525050565b60006020820190506134856000830184613461565b92915050565b600080fd5b7f4e487b7100000000000000000000000000000000000000000000000000000000600052604160045260246000fd5b6134c8826132ca565b810181811067ffffffffffffffff821117156134e7576134e6613490565b5b80604052505050565b60006134fa6131ac565b905061350682826134bf565b919050565b600067ffffffffffffffff82111561352657613525613490565b5b602082029050602081019050919050565b600080fd5b600061354f61354a8461350b565b6134f0565b9050808382526020820190506020840283018581111561357257613571613537565b5b835b8181101561359b57806135878882613357565b845260208401935050602081019050613574565b5050509392505050565b600082601f8301126135ba576135b961348b565b5b81356135ca84826020860161353c565b91505092915050565b600080604083850312156135ea576135e96131b6565b5b60006135f885828601613357565b925050602083013567ffffffffffffffff811115613619576136186131bb565b5b613625858286016135a5565b9150509250929050565b600080600060608486031215613648576136476131b6565b5b60006136568682870161340c565b93505060206136678682870161340c565b925050604061367886828701613357565b9150509250925092565b600063ffffffff82169050919050565b61369b81613682565b82525050565b60006020820190506136b66000830184613692565b92915050565b6000819050919050565b60006136e16136dc6136d784613399565b6136bc565b613399565b9050919050565b60006136f3826136c6565b9050919050565b6000613705826136e8565b9050919050565b613715816136fa565b82525050565b6000602082019050613730600083018461370c565b92915050565b60006020828403121561374c5761374b6131b6565b5b600061375a8482850161340c565b91505092915050565b600080fd5b60008083601f84011261377e5761377d61348b565b5b8235905067ffffffffffffffff81111561379b5761379a613763565b5b6020830191508360018202830111156137b7576137b6613537565b5b9250929050565b600080602083850312156137d5576137d46131b6565b5b600083013567ffffffffffffffff8111156137f3576137f26131bb565b5b6137ff85828601613768565b92509250509250929050565b6000613816826136e8565b9050919050565b6138268161380b565b82525050565b6000602082019050613841600083018461381d565b92915050565b600081519050919050565b600082825260208201905092915050565b600061386e82613847565b6138788185613852565b9350613888818560208601613297565b613891816132ca565b840191505092915050565b60006040820190506138b16000830185613251565b81810360208301526138c38184613863565b90509392505050565b600067ffffffffffffffff82169050919050565b6138e9816138cc565b82525050565b600060208201905061390460008301846138e0565b92915050565b6000819050919050565b61391d8161390a565b82525050565b60006020820190506139386000830184613914565b92915050565b61394781613245565b811461395257600080fd5b50565b6000813590506139648161393e565b92915050565b60008060408385031215613981576139806131b6565b5b600061398f8582860161340c565b92505060206139a085828601613955565b9150509250929050565b6139b381613682565b81146139be57600080fd5b50565b6000813590506139d0816139aa565b92915050565b6000602082840312156139ec576139eb6131b6565b5b60006139fa848285016139c1565b91505092915050565b600080fd5b600067ffffffffffffffff821115613a2357613a22613490565b5b613a2c826132ca565b9050602081019050919050565b82818337600083830152505050565b6000613a5b613a5684613a08565b6134f0565b905082815260208101848484011115613a7757613a76613a03565b5b613a82848285613a39565b509392505050565b600082601f830112613a9f57613a9e61348b565b5b8135613aaf848260208601613a48565b91505092915050565b60008060008060808587031215613ad257613ad16131b6565b5b6000613ae08782880161340c565b9450506020613af18782880161340c565b9350506040613b0287828801613357565b925050606085013567ffffffffffffffff811115613b2357613b226131bb565b5b613b2f87828801613a8a565b91505092959194509250565b60008060408385031215613b5257613b516131b6565b5b6000613b608582860161340c565b9250506020613b718582860161340c565b9150509250929050565b613b84816138cc565b8114613b8f57600080fd5b50565b600081359050613ba181613b7b565b92915050565b600060208284031215613bbd57613bbc6131b6565b5b6000613bcb84828501613b92565b91505092915050565b7f4e487b7100000000000000000000000000000000000000000000000000000000600052602160045260246000fd5b60028110613c1457613c13613bd4565b5b50565b6000819050613c2582613c03565b919050565b6000613c3582613c17565b9050919050565b613c4581613c2a565b82525050565b6000602082019050613c606000830184613c3c565b92915050565b7f4e487b7100000000000000000000000000000000000000000000000000000000600052602260045260246000fd5b60006002820490506001821680613cad57607f821691505b60208210811415613cc157613cc0613c66565b5b50919050565b7f4552433732313a20617070726f76616c20746f2063757272656e74206f776e6560008201527f7200000000000000000000000000000000000000000000000000000000000000602082015250565b6000613d23602183613286565b9150613d2e82613cc7565b604082019050919050565b60006020820190508181036000830152613d5281613d16565b9050919050565b7f4552433732313a20617070726f76652063616c6c6572206973206e6f7420746f60008201527f6b656e206f776e6572206e6f7220617070726f76656420666f7220616c6c0000602082015250565b6000613db5603e83613286565b9150613dc082613d59565b604082019050919050565b60006020820190508181036000830152613de481613da8565b9050919050565b6000604082019050613e0060008301856133cb565b613e0d60208301846133cb565b9392505050565b7f4552433732313a2063616c6c6572206973206e6f7420746f6b656e206f776e6560008201527f72206e6f7220617070726f766564000000000000000000000000000000000000602082015250565b6000613e70602e83613286565b9150613e7b82613e14565b604082019050919050565b60006020820190508181036000830152613e9f81613e63565b9050919050565b7f455243373231456e756d657261626c653a206f776e657220696e646578206f7560008201527f74206f6620626f756e6473000000000000000000000000000000000000000000602082015250565b6000613f02602b83613286565b9150613f0d82613ea6565b604082019050919050565b60006020820190508181036000830152613f3181613ef5565b9050919050565b7f4e487b7100000000000000000000000000000000000000000000000000000000600052603260045260246000fd5b7f4e487b7100000000000000000000000000000000000000000000000000000000600052601160045260246000fd5b6000613fa182613336565b9150613fac83613336565b925082821015613fbf57613fbe613f67565b5b828203905092915050565b7f455243373231456e756d657261626c653a20676c6f62616c20696e646578206f60008201527f7574206f6620626f756e64730000000000000000000000000000000000000000602082015250565b6000614026602c83613286565b915061403182613fca565b604082019050919050565b6000602082019050818103600083015261405581614019565b9050919050565b7f4552433732313a20696e76616c696420746f6b656e2049440000000000000000600082015250565b6000614092601883613286565b915061409d8261405c565b602082019050919050565b600060208201905081810360008301526140c181614085565b9050919050565b7f4552433732313a2061646472657373207a65726f206973206e6f74206120766160008201527f6c6964206f776e65720000000000000000000000000000000000000000000000602082015250565b6000614124602983613286565b915061412f826140c8565b604082019050919050565b6000602082019050818103600083015261415381614117565b9050919050565b600069ffffffffffffffffffff82169050919050565b6141798161415a565b811461418457600080fd5b50565b60008151905061419681614170565b92915050565b6141a58161390a565b81146141b057600080fd5b50565b6000815190506141c28161419c565b92915050565b6000815190506141d781613340565b92915050565b600080600080600060a086880312156141f9576141f86131b6565b5b600061420788828901614187565b9550506020614218888289016141b3565b9450506040614229888289016141c8565b935050606061423a888289016141c8565b925050608061424b88828901614187565b9150509295509295909350565b7f4f776e61626c653a206e6577206f776e657220697320746865207a65726f206160008201527f6464726573730000000000000000000000000000000000000000000000000000602082015250565b60006142b4602683613286565b91506142bf82614258565b604082019050919050565b600060208201905081810360008301526142e3816142a7565b9050919050565b7f4e487b7100000000000000000000000000000000000000000000000000000000600052601260045260246000fd5b600061432482613336565b915061432f83613336565b92508261433f5761433e6142ea565b5b828206905092915050565b600061435582613336565b91507fffffffffffffffffffffffffffffffffffffffffffffffffffffffffffffffff82141561438857614387613f67565b5b600182019050919050565b7f4f776e61626c653a2063616c6c6572206973206e6f7420746865206f776e6572600082015250565b60006143c9602083613286565b91506143d482614393565b602082019050919050565b600060208201905081810360008301526143f8816143bc565b9050919050565b7f4552433732313a207472616e736665722066726f6d20696e636f72726563742060008201527f6f776e6572000000000000000000000000000000000000000000000000000000602082015250565b600061445b602583613286565b9150614466826143ff565b604082019050919050565b6000602082019050818103600083015261448a8161444e565b9050919050565b7f4552433732313a207472616e7366657220746f20746865207a65726f2061646460008201527f7265737300000000000000000000000000000000000000000000000000000000602082015250565b60006144ed602483613286565b91506144f882614491565b604082019050919050565b6000602082019050818103600083015261451c816144e0565b9050919050565b600061452e82613336565b915061453983613336565b9250827fffffffffffffffffffffffffffffffffffffffffffffffffffffffffffffffff0382111561456e5761456d613f67565b5b828201905092915050565b7f45524337323155524953746f726167653a2055524920736574206f66206e6f6e60008201527f6578697374656e7420746f6b656e000000000000000000000000000000000000602082015250565b60006145d5602e83613286565b91506145e082614579565b604082019050919050565b60006020820190508181036000830152614604816145c8565b9050919050565b6000608082019050818103600083015261462581876132db565b90506146346020830186613461565b818103604083015261464681856132db565b9050818103606083015261465a81846132db565b905095945050505050565b7f537562736372697074696f6e204944206e6f7420736574000000000000000000600082015250565b600061469b601783613286565b91506146a682614665565b602082019050919050565b600060208201905081810360008301526146ca8161468e565b9050919050565b6000819050919050565b6146e4816146d1565b82525050565b6000819050919050565b600061ffff82169050919050565b600061471d614718614713846146ea565b6136bc565b6146f4565b9050919050565b61472d81614702565b82525050565b6000819050919050565b600061475861475361474e84614733565b6136bc565b613682565b9050919050565b6147688161473d565b82525050565b600060a08201905061478360008301886146db565b61479060208301876138e0565b61479d6040830186614724565b6147aa6060830185613692565b6147b7608083018461475f565b9695505050505050565b6000602082840312156147d7576147d66131b6565b5b60006147e5848285016141c8565b91505092915050565b7f4552433732313a20617070726f766520746f2063616c6c657200000000000000600082015250565b6000614824601983613286565b915061482f826147ee565b602082019050919050565b6000602082019050818103600083015261485381614817565b9050919050565b7f4552433732313a207472616e7366657220746f206e6f6e20455243373231526560008201527f63656976657220696d706c656d656e7465720000000000000000000000000000602082015250565b60006148b6603283613286565b91506148c18261485a565b604082019050919050565b600060208201905081810360008301526148e5816148a9565b9050919050565b600081905092915050565b60006149028261327b565b61490c81856148ec565b935061491c818560208601613297565b80840191505092915050565b600061493482856148f7565b915061494082846148f7565b91508190509392505050565b6000604082019050818103600083015261496681856132db565b90506149756020830184613461565b9392505050565b600060808201905061499160008301876133cb565b61499e60208301866133cb565b6149ab6040830185613461565b81810360608301526149bd8184613863565b905095945050505050565b6000815190506149d7816131ec565b92915050565b6000602082840312156149f3576149f26131b6565b5b6000614a01848285016149c8565b91505092915050565b7f4552433732313a206d696e7420746f20746865207a65726f2061646472657373600082015250565b6000614a40602083613286565b9150614a4b82614a0a565b602082019050919050565b60006020820190508181036000830152614a6f81614a33565b9050919050565b7f4552433732313a20746f6b656e20616c7265616479206d696e74656400000000600082015250565b6000614aac601c83613286565b9150614ab782614a76565b602082019050919050565b60006020820190508181036000830152614adb81614a9f565b9050919050565b6000614aed82613336565b9150614af883613336565b925082614b0857614b076142ea565b5b828204905092915050565b7f4e487b7100000000000000000000000000000000000000000000000000000000600052603160045260246000fdfea2646970667358221220b96c23670b9cd13a1d4bcfed88d131820266142debd30c8de5338a974044226864736f6c6343000809003368747470733a2f2f697066732e696f2f697066732f516d646355526d4e316b4545744b676e626b564a4a3868726d73535748705a764c6b5267734b4b6f6957765739673f66696c656e616d653d73696d706c655f62756c6c2e6a736f6e68747470733a2f2f697066732e696f2f697066732f516d5258796669336f4e5a43756244786956467265336b4c5a3858654774367051736e4151525a37616b68534e733f66696c656e616d653d67616d65725f62756c6c2e6a736f6e68747470733a2f2f697066732e696f2f697066732f516d624b68425856576d777259735450465966726f52324e374e41656b414d78485556673243576b73376939716a3f66696c656e616d653d73696d706c655f626561722e6a736f6e68747470733a2f2f697066732e696f2f697066732f516d6478394878374643445a474578796a4c52367659636e75745552384b68425a426e5a6641504869556f6d6d4e3f66696c656e616d653d6265616e69655f626561722e6a736f6e68747470733a2f2f697066732e696f2f697066732f516d524a5646654d7274595332435556554d3263484a70425635615832787572706e73665a784c545451626944333f66696c656e616d653d70617274795f62756c6c2e6a736f6e68747470733a2f2f697066732e696f2f697066732f516d54564c79545375694b4755456d6238384267584733714e4338596770485a6946626a4872584b4833514845753f66696c656e616d653d636f6f6c696f5f626561722e6a736f6e",
  "devdoc": {
    "kind": "dev",
    "methods": {
      "approve(address,uint256)": {
        "details": "See {IERC721-approve}."
      },
      "balanceOf(address)": {
        "details": "See {IERC721-balanceOf}."
      },
      "getApproved(uint256)": {
        "details": "See {IERC721-getApproved}."
      },
      "isApprovedForAll(address,address)": {
        "details": "See {IERC721-isApprovedForAll}."
      },
      "name()": {
        "details": "See {IERC721Metadata-name}."
      },
      "owner()": {
        "details": "Returns the address of the current owner."
      },
      "ownerOf(uint256)": {
        "details": "See {IERC721-ownerOf}."
      },
      "renounceOwnership()": {
        "details": "Leaves the contract without owner. It will not be possible to call `onlyOwner` functions anymore. Can only be called by the current owner. NOTE: Renouncing ownership will leave the contract without an owner, thereby removing any functionality that is only available to the owner."
      },
      "safeTransferFrom(address,address,uint256)": {
        "details": "See {IERC721-safeTransferFrom}."
      },
      "safeTransferFrom(address,address,uint256,bytes)": {
        "details": "See {IERC721-safeTransferFrom}."
      },
      "setApprovalForAll(address,bool)": {
        "details": "See {IERC721-setApprovalForAll}."
      },
      "symbol()": {
        "details": "See {IERC721Metadata-symbol}."
      },
      "tokenByIndex(uint256)": {
        "details": "See {IERC721Enumerable-tokenByIndex}."
      },
      "tokenOfOwnerByIndex(address,uint256)": {
        "details": "See {IERC721Enumerable-tokenOfOwnerByIndex}."
      },
      "totalSupply()": {
        "details": "See {IERC721Enumerable-totalSupply}."
      },
      "transferFrom(address,address,uint256)": {
        "details": "See {IERC721-transferFrom}."
      },
      "transferOwnership(address)": {
        "details": "Transfers ownership of the contract to a new account (`newOwner`). Can only be called by the current owner."
      }
    },
    "version": 1
  },
  "userdoc": {
    "kind": "user",
    "methods": {
      "interval()": {
        "notice": "Use an interval in seconds and a timestamp to slow execution of Upkeep"
      }
    },
    "version": 1
  },
  "storageLayout": {
    "storage": [
      {
        "astId": 389,
        "contract": "contracts/RandomBullBear.sol:RandomBullBear",
        "label": "_name",
        "offset": 0,
        "slot": "0",
        "type": "t_string_storage"
      },
      {
        "astId": 391,
        "contract": "contracts/RandomBullBear.sol:RandomBullBear",
        "label": "_symbol",
        "offset": 0,
        "slot": "1",
        "type": "t_string_storage"
      },
      {
        "astId": 395,
        "contract": "contracts/RandomBullBear.sol:RandomBullBear",
        "label": "_owners",
        "offset": 0,
        "slot": "2",
        "type": "t_mapping(t_uint256,t_address)"
      },
      {
        "astId": 399,
        "contract": "contracts/RandomBullBear.sol:RandomBullBear",
        "label": "_balances",
        "offset": 0,
        "slot": "3",
        "type": "t_mapping(t_address,t_uint256)"
      },
      {
        "astId": 403,
        "contract": "contracts/RandomBullBear.sol:RandomBullBear",
        "label": "_tokenApprovals",
        "offset": 0,
        "slot": "4",
        "type": "t_mapping(t_uint256,t_address)"
      },
      {
        "astId": 409,
        "contract": "contracts/RandomBullBear.sol:RandomBullBear",
        "label": "_operatorApprovals",
        "offset": 0,
        "slot": "5",
        "type": "t_mapping(t_address,t_mapping(t_address,t_bool))"
      },
      {
        "astId": 1379,
        "contract": "contracts/RandomBullBear.sol:RandomBullBear",
        "label": "_ownedTokens",
        "offset": 0,
        "slot": "6",
        "type": "t_mapping(t_address,t_mapping(t_uint256,t_uint256))"
      },
      {
        "astId": 1383,
        "contract": "contracts/RandomBullBear.sol:RandomBullBear",
        "label": "_ownedTokensIndex",
        "offset": 0,
        "slot": "7",
        "type": "t_mapping(t_uint256,t_uint256)"
      },
      {
        "astId": 1386,
        "contract": "contracts/RandomBullBear.sol:RandomBullBear",
        "label": "_allTokens",
        "offset": 0,
        "slot": "8",
        "type": "t_array(t_uint256)dyn_storage"
      },
      {
        "astId": 1390,
        "contract": "contracts/RandomBullBear.sol:RandomBullBear",
        "label": "_allTokensIndex",
        "offset": 0,
        "slot": "9",
        "type": "t_mapping(t_uint256,t_uint256)"
      },
      {
        "astId": 1715,
        "contract": "contracts/RandomBullBear.sol:RandomBullBear",
        "label": "_tokenURIs",
        "offset": 0,
        "slot": "10",
        "type": "t_mapping(t_uint256,t_string_storage)"
      },
      {
        "astId": 258,
        "contract": "contracts/RandomBullBear.sol:RandomBullBear",
        "label": "_owner",
        "offset": 0,
        "slot": "11",
        "type": "t_address"
      },
      {
        "astId": 2570,
        "contract": "contracts/RandomBullBear.sol:RandomBullBear",
        "label": "_tokenIdCounter",
        "offset": 0,
        "slot": "12",
        "type": "t_struct(Counter)2208_storage"
      },
      {
        "astId": 2573,
        "contract": "contracts/RandomBullBear.sol:RandomBullBear",
        "label": "pricefeed",
        "offset": 0,
        "slot": "13",
        "type": "t_contract(AggregatorV3Interface)142"
      },
      {
        "astId": 2576,
        "contract": "contracts/RandomBullBear.sol:RandomBullBear",
        "label": "COORDINATOR",
        "offset": 0,
        "slot": "14",
        "type": "t_contract(VRFCoordinatorV2Interface)250"
      },
      {
        "astId": 2579,
        "contract": "contracts/RandomBullBear.sol:RandomBullBear",
        "label": "s_randomWords",
        "offset": 0,
        "slot": "15",
        "type": "t_array(t_uint256)dyn_storage"
      },
      {
        "astId": 2581,
        "contract": "contracts/RandomBullBear.sol:RandomBullBear",
        "label": "s_requestId",
        "offset": 0,
        "slot": "16",
        "type": "t_uint256"
      },
      {
        "astId": 2584,
        "contract": "contracts/RandomBullBear.sol:RandomBullBear",
        "label": "callbackGasLimit",
        "offset": 0,
        "slot": "17",
        "type": "t_uint32"
      },
      {
        "astId": 2586,
        "contract": "contracts/RandomBullBear.sol:RandomBullBear",
        "label": "s_subscriptionId",
        "offset": 4,
        "slot": "17",
        "type": "t_uint64"
      },
      {
        "astId": 2589,
        "contract": "contracts/RandomBullBear.sol:RandomBullBear",
        "label": "keyhash",
        "offset": 0,
        "slot": "18",
        "type": "t_bytes32"
      },
      {
        "astId": 2597,
        "contract": "contracts/RandomBullBear.sol:RandomBullBear",
        "label": "currentMarketTrend",
        "offset": 0,
        "slot": "19",
        "type": "t_enum(MarketTrend)2592"
      },
      {
        "astId": 2600,
        "contract": "contracts/RandomBullBear.sol:RandomBullBear",
        "label": "interval",
        "offset": 0,
        "slot": "20",
        "type": "t_uint256"
      },
      {
        "astId": 2602,
        "contract": "contracts/RandomBullBear.sol:RandomBullBear",
        "label": "lastTimeStamp",
        "offset": 0,
        "slot": "21",
        "type": "t_uint256"
      },
      {
        "astId": 2604,
        "contract": "contracts/RandomBullBear.sol:RandomBullBear",
        "label": "currentPrice",
        "offset": 0,
        "slot": "22",
        "type": "t_int256"
      },
      {
        "astId": 2611,
        "contract": "contracts/RandomBullBear.sol:RandomBullBear",
        "label": "bullUrisIpfs",
        "offset": 0,
        "slot": "23",
        "type": "t_array(t_string_storage)dyn_storage"
      },
      {
        "astId": 2618,
        "contract": "contracts/RandomBullBear.sol:RandomBullBear",
        "label": "bearUrisIpfs",
        "offset": 0,
        "slot": "24",
        "type": "t_array(t_string_storage)dyn_storage"
      }
    ],
    "types": {
      "t_address": {
        "encoding": "inplace",
        "label": "address",
        "numberOfBytes": "20"
      },
      "t_array(t_string_storage)dyn_storage": {
        "base": "t_string_storage",
        "encoding": "dynamic_array",
        "label": "string[]",
        "numberOfBytes": "32"
      },
      "t_array(t_uint256)dyn_storage": {
        "base": "t_uint256",
        "encoding": "dynamic_array",
        "label": "uint256[]",
        "numberOfBytes": "32"
      },
      "t_bool": {
        "encoding": "inplace",
        "label": "bool",
        "numberOfBytes": "1"
      },
      "t_bytes32": {
        "encoding": "inplace",
        "label": "bytes32",
        "numberOfBytes": "32"
      },
      "t_contract(AggregatorV3Interface)142": {
        "encoding": "inplace",
        "label": "contract AggregatorV3Interface",
        "numberOfBytes": "20"
      },
      "t_contract(VRFCoordinatorV2Interface)250": {
        "encoding": "inplace",
        "label": "contract VRFCoordinatorV2Interface",
        "numberOfBytes": "20"
      },
      "t_enum(MarketTrend)2592": {
        "encoding": "inplace",
        "label": "enum RandomBullBear.MarketTrend",
        "numberOfBytes": "1"
      },
      "t_int256": {
        "encoding": "inplace",
        "label": "int256",
        "numberOfBytes": "32"
      },
      "t_mapping(t_address,t_bool)": {
        "encoding": "mapping",
        "key": "t_address",
        "label": "mapping(address => bool)",
        "numberOfBytes": "32",
        "value": "t_bool"
      },
      "t_mapping(t_address,t_mapping(t_address,t_bool))": {
        "encoding": "mapping",
        "key": "t_address",
        "label": "mapping(address => mapping(address => bool))",
        "numberOfBytes": "32",
        "value": "t_mapping(t_address,t_bool)"
      },
      "t_mapping(t_address,t_mapping(t_uint256,t_uint256))": {
        "encoding": "mapping",
        "key": "t_address",
        "label": "mapping(address => mapping(uint256 => uint256))",
        "numberOfBytes": "32",
        "value": "t_mapping(t_uint256,t_uint256)"
      },
      "t_mapping(t_address,t_uint256)": {
        "encoding": "mapping",
        "key": "t_address",
        "label": "mapping(address => uint256)",
        "numberOfBytes": "32",
        "value": "t_uint256"
      },
      "t_mapping(t_uint256,t_address)": {
        "encoding": "mapping",
        "key": "t_uint256",
        "label": "mapping(uint256 => address)",
        "numberOfBytes": "32",
        "value": "t_address"
      },
      "t_mapping(t_uint256,t_string_storage)": {
        "encoding": "mapping",
        "key": "t_uint256",
        "label": "mapping(uint256 => string)",
        "numberOfBytes": "32",
        "value": "t_string_storage"
      },
      "t_mapping(t_uint256,t_uint256)": {
        "encoding": "mapping",
        "key": "t_uint256",
        "label": "mapping(uint256 => uint256)",
        "numberOfBytes": "32",
        "value": "t_uint256"
      },
      "t_string_storage": {
        "encoding": "bytes",
        "label": "string",
        "numberOfBytes": "32"
      },
      "t_struct(Counter)2208_storage": {
        "encoding": "inplace",
        "label": "struct Counters.Counter",
        "members": [
          {
            "astId": 2207,
            "contract": "contracts/RandomBullBear.sol:RandomBullBear",
            "label": "_value",
            "offset": 0,
            "slot": "0",
            "type": "t_uint256"
          }
        ],
        "numberOfBytes": "32"
      },
      "t_uint256": {
        "encoding": "inplace",
        "label": "uint256",
        "numberOfBytes": "32"
      },
      "t_uint32": {
        "encoding": "inplace",
        "label": "uint32",
        "numberOfBytes": "4"
      },
      "t_uint64": {
        "encoding": "inplace",
        "label": "uint64",
        "numberOfBytes": "8"
      }
    }
  }
}